{"abi":[{"type":"constructor","inputs":[{"name":"_stylusVerifier","type":"address","internalType":"address"}],"stateMutability":"nonpayable"},{"type":"function","name":"isCompliant","inputs":[{"name":"user","type":"address","internalType":"address"},{"name":"attributeType","type":"string","internalType":"string"}],"outputs":[{"name":"verified","type":"bool","internalType":"bool"}],"stateMutability":"view"},{"type":"function","name":"owner","inputs":[],"outputs":[{"name":"","type":"address","internalType":"address"}],"stateMutability":"view"},{"type":"function","name":"renounceOwnership","inputs":[],"outputs":[],"stateMutability":"nonpayable"},{"type":"function","name":"stylusVerifier","inputs":[],"outputs":[{"name":"","type":"address","internalType":"address"}],"stateMutability":"view"},{"type":"function","name":"transferOwnership","inputs":[{"name":"newOwner","type":"address","internalType":"address"}],"outputs":[],"stateMutability":"nonpayable"},{"type":"function","name":"updateStylusVerifier","inputs":[{"name":"_newVerifier","type":"address","internalType":"address"}],"outputs":[],"stateMutability":"nonpayable"},{"type":"function","name":"userCompliance","inputs":[{"name":"","type":"address","internalType":"address"},{"name":"","type":"string","internalType":"string"}],"outputs":[{"name":"","type":"bool","internalType":"bool"}],"stateMutability":"view"},{"type":"function","name":"verifiedProofs","inputs":[{"name":"","type":"bytes32","internalType":"bytes32"}],"outputs":[{"name":"","type":"bool","internalType":"bool"}],"stateMutability":"view"},{"type":"function","name":"verifyProof","inputs":[{"name":"proof","type":"bytes","internalType":"bytes"},{"name":"attributeType","type":"string","internalType":"string"}],"outputs":[{"name":"success","type":"bool","internalType":"bool"}],"stateMutability":"nonpayable"},{"type":"event","name":"OwnershipTransferred","inputs":[{"name":"previousOwner","type":"address","indexed":true,"internalType":"address"},{"name":"newOwner","type":"address","indexed":true,"internalType":"address"}],"anonymous":false},{"type":"event","name":"ProofVerified","inputs":[{"name":"user","type":"address","indexed":true,"internalType":"address"},{"name":"attributeType","type":"string","indexed":false,"internalType":"string"},{"name":"proofHash","type":"bytes32","indexed":false,"internalType":"bytes32"},{"name":"gasUsed","type":"uint256","indexed":false,"internalType":"uint256"}],"anonymous":false},{"type":"event","name":"StylusVerifierUpdated","inputs":[{"name":"oldVerifier","type":"address","indexed":true,"internalType":"address"},{"name":"newVerifier","type":"address","indexed":true,"internalType":"address"}],"anonymous":false},{"type":"error","name":"OwnableInvalidOwner","inputs":[{"name":"owner","type":"address","internalType":"address"}]},{"type":"error","name":"OwnableUnauthorizedAccount","inputs":[{"name":"account","type":"address","internalType":"address"}]}],"bytecode":{"object":"0x60803461011d57601f6107e438819003918201601f19168301916001600160401b038311848410176101215780849260209460405283398101031261011d57516001600160a01b0381169081900361011d57331561010a575f8054336001600160a01b03198216811783556040519290916001600160a01b0316907f8be0079c531659141344cd1fd0a4f28419497f9722a3daafe3b4186f6b6457e09080a381156100c85750600180546001600160a01b0319169190911790556040516106ae90816101368239f35b62461bcd60e51b815260206004820152601860248201527f496e76616c6964207665726966696572206164647265737300000000000000006044820152606490fd5b631e4fbdf760e01b5f525f60045260245ffd5b5f80fd5b634e487b7160e01b5f52604160045260245ffdfe6080806040526004361015610012575f80fd5b5f3560e01c908163176d80c41461053b575080635156fda1146104cb578063715018a6146104745780637436ca7c1461044c5780638da5cb5b14610425578063aec4bbb01461039e578063b4bbc9aa146101c0578063dc3ac516146101085763f2fde38b1461007f575f80fd5b3461010457602036600319011261010457610098610566565b6100a0610652565b6001600160a01b031680156100f1575f80546001600160a01b03198116831782556001600160a01b0316907f8be0079c531659141344cd1fd0a4f28419497f9722a3daafe3b4186f6b6457e09080a3005b631e4fbdf760e01b5f525f60045260245ffd5b5f80fd5b3461010457602036600319011261010457610121610566565b610129610652565b6001600160a01b0316801561017b57600180546001600160a01b0319811683179091556001600160a01b03167fbe825a4f06a3665c1cf1c1d105e7787150f54a654f786b2bfd7b7350e871f8135f80a3005b60405162461bcd60e51b815260206004820152601860248201527f496e76616c6964207665726966696572206164647265737300000000000000006044820152606490fd5b346101045760403660031901126101045760043567ffffffffffffffff8111610104576101f190369060040161057c565b60243567ffffffffffffffff81116101045761021190369060040161057c565b90915a935f8060018060a01b036001541660405182602082019163473b057f60e11b83526020602482015261025c8161024e604482018b8b610632565b03601f1981018352826105aa565b51925af13d15610399573d610270816105e0565b9061027e60405192836105aa565b81525f60203d92013e5b15610354576102989136916105fc565b6020815191012092835f52600260205260405f20600160ff19825416179055335f52600360205260405f20602060405180928587833781860190815203019020805460ff191660011790555a8103908111610340576103247f142aa142a01bf97efeee299c6a83e0d42ce1319d41aefadc0c2f274429b53acc9360405193606085526060850191610632565b93602083015260408201528033930390a2602060405160018152f35b634e487b7160e01b5f52601160045260245ffd5b60405162461bcd60e51b815260206004820152601960248201527f50726f6f6620766572696669636174696f6e206661696c6564000000000000006044820152606490fd5b610288565b34610104576040366003190112610104576103b7610566565b60243567ffffffffffffffff811161010457366023820112156101045760208080936103ef60ff9436906024816004013591016105fc565b9060018060a01b03165f526003825260405f20604051938285935191829101845e82019081520301902054166040519015158152f35b34610104575f366003190112610104575f546040516001600160a01b039091168152602090f35b34610104575f366003190112610104576001546040516001600160a01b039091168152602090f35b34610104575f3660031901126101045761048c610652565b5f80546001600160a01b0319811682556001600160a01b03167f8be0079c531659141344cd1fd0a4f28419497f9722a3daafe3b4186f6b6457e08280a3005b34610104576040366003190112610104576104e4610566565b60243567ffffffffffffffff8111610104576020918261050a60ff93369060040161057c565b9260018060a01b03165f526003825260405f2083604051948593843782019081520301902054166040519015158152f35b34610104576020366003190112610104576020906004355f526002825260ff60405f20541615158152f35b600435906001600160a01b038216820361010457565b9181601f840112156101045782359167ffffffffffffffff8311610104576020838186019501011161010457565b90601f8019910116810190811067ffffffffffffffff8211176105cc57604052565b634e487b7160e01b5f52604160045260245ffd5b67ffffffffffffffff81116105cc57601f01601f191660200190565b929192610608826105e0565b9161061660405193846105aa565b829481845281830111610104578281602093845f960137010152565b908060209392818452848401375f828201840152601f01601f1916010190565b5f546001600160a01b0316330361066557565b63118cdaa760e01b5f523360045260245ffdfea2646970667358221220b69fa14d2252c6dd48d1209f0357a163087725f6ed284835174f70de2a9aca6764736f6c634300081c0033","linkReferences":{}},"methodIdentifiers":{"isCompliant(address,string)":"5156fda1","owner()":"8da5cb5b","renounceOwnership()":"715018a6","stylusVerifier()":"7436ca7c","transferOwnership(address)":"f2fde38b","updateStylusVerifier(address)":"dc3ac516","userCompliance(address,string)":"aec4bbb0","verifiedProofs(bytes32)":"176d80c4","verifyProof(bytes,string)":"b4bbc9aa"},"id":28}