{"abi":[{"type":"constructor","inputs":[{"name":"_complianceRegistry","type":"address","internalType":"address"}],"stateMutability":"nonpayable"},{"type":"function","name":"allowance","inputs":[{"name":"owner","type":"address","internalType":"address"},{"name":"spender","type":"address","internalType":"address"}],"outputs":[{"name":"","type":"uint256","internalType":"uint256"}],"stateMutability":"view"},{"type":"function","name":"approve","inputs":[{"name":"spender","type":"address","internalType":"address"},{"name":"value","type":"uint256","internalType":"uint256"}],"outputs":[{"name":"","type":"bool","internalType":"bool"}],"stateMutability":"nonpayable"},{"type":"function","name":"balanceOf","inputs":[{"name":"account","type":"address","internalType":"address"}],"outputs":[{"name":"","type":"uint256","internalType":"uint256"}],"stateMutability":"view"},{"type":"function","name":"complianceRegistry","inputs":[],"outputs":[{"name":"","type":"address","internalType":"address"}],"stateMutability":"view"},{"type":"function","name":"decimals","inputs":[],"outputs":[{"name":"","type":"uint8","internalType":"uint8"}],"stateMutability":"view"},{"type":"function","name":"isCompliant","inputs":[{"name":"user","type":"address","internalType":"address"}],"outputs":[{"name":"","type":"bool","internalType":"bool"}],"stateMutability":"view"},{"type":"function","name":"mint","inputs":[{"name":"to","type":"address","internalType":"address"},{"name":"amount","type":"uint256","internalType":"uint256"}],"outputs":[],"stateMutability":"nonpayable"},{"type":"function","name":"name","inputs":[],"outputs":[{"name":"","type":"string","internalType":"string"}],"stateMutability":"view"},{"type":"function","name":"owner","inputs":[],"outputs":[{"name":"","type":"address","internalType":"address"}],"stateMutability":"view"},{"type":"function","name":"renounceOwnership","inputs":[],"outputs":[],"stateMutability":"nonpayable"},{"type":"function","name":"symbol","inputs":[],"outputs":[{"name":"","type":"string","internalType":"string"}],"stateMutability":"view"},{"type":"function","name":"totalSupply","inputs":[],"outputs":[{"name":"","type":"uint256","internalType":"uint256"}],"stateMutability":"view"},{"type":"function","name":"transfer","inputs":[{"name":"to","type":"address","internalType":"address"},{"name":"value","type":"uint256","internalType":"uint256"}],"outputs":[{"name":"","type":"bool","internalType":"bool"}],"stateMutability":"nonpayable"},{"type":"function","name":"transferFrom","inputs":[{"name":"from","type":"address","internalType":"address"},{"name":"to","type":"address","internalType":"address"},{"name":"value","type":"uint256","internalType":"uint256"}],"outputs":[{"name":"","type":"bool","internalType":"bool"}],"stateMutability":"nonpayable"},{"type":"function","name":"transferOwnership","inputs":[{"name":"newOwner","type":"address","internalType":"address"}],"outputs":[],"stateMutability":"nonpayable"},{"type":"function","name":"updateComplianceRegistry","inputs":[{"name":"_newRegistry","type":"address","internalType":"address"}],"outputs":[],"stateMutability":"nonpayable"},{"type":"event","name":"Approval","inputs":[{"name":"owner","type":"address","indexed":true,"internalType":"address"},{"name":"spender","type":"address","indexed":true,"internalType":"address"},{"name":"value","type":"uint256","indexed":false,"internalType":"uint256"}],"anonymous":false},{"type":"event","name":"ComplianceRegistryUpdated","inputs":[{"name":"newRegistry","type":"address","indexed":true,"internalType":"address"}],"anonymous":false},{"type":"event","name":"OwnershipTransferred","inputs":[{"name":"previousOwner","type":"address","indexed":true,"internalType":"address"},{"name":"newOwner","type":"address","indexed":true,"internalType":"address"}],"anonymous":false},{"type":"event","name":"Transfer","inputs":[{"name":"from","type":"address","indexed":true,"internalType":"address"},{"name":"to","type":"address","indexed":true,"internalType":"address"},{"name":"value","type":"uint256","indexed":false,"internalType":"uint256"}],"anonymous":false},{"type":"error","name":"ERC20InsufficientAllowance","inputs":[{"name":"spender","type":"address","internalType":"address"},{"name":"allowance","type":"uint256","internalType":"uint256"},{"name":"needed","type":"uint256","internalType":"uint256"}]},{"type":"error","name":"ERC20InsufficientBalance","inputs":[{"name":"sender","type":"address","internalType":"address"},{"name":"balance","type":"uint256","internalType":"uint256"},{"name":"needed","type":"uint256","internalType":"uint256"}]},{"type":"error","name":"ERC20InvalidApprover","inputs":[{"name":"approver","type":"address","internalType":"address"}]},{"type":"error","name":"ERC20InvalidReceiver","inputs":[{"name":"receiver","type":"address","internalType":"address"}]},{"type":"error","name":"ERC20InvalidSender","inputs":[{"name":"sender","type":"address","internalType":"address"}]},{"type":"error","name":"ERC20InvalidSpender","inputs":[{"name":"spender","type":"address","internalType":"address"}]},{"type":"error","name":"OwnableInvalidOwner","inputs":[{"name":"owner","type":"address","internalType":"address"}]},{"type":"error","name":"OwnableUnauthorizedAccount","inputs":[{"name":"account","type":"address","internalType":"address"}]}],"bytecode":{"object":"0x6080806040523461041c57602081610f02803803809161001f8285610420565b83398101031261041c57516001600160a01b0381169081900361041c5760409081519161004c8184610420565b600a835269135bd8dac8109552511360b21b60208401528051916100708284610420565b60068352651b509552511360d21b602084015283516001600160401b03811161032d57600354600181811c91168015610412575b602082101461030f57601f81116103af575b50602094601f821160011461034c579481929394955f92610341575b50508160011b915f199060031b1c1916176003555b82516001600160401b03811161032d57600454600181811c91168015610323575b602082101461030f57601f81116102ac575b506020601f821160011461024957819293945f9261023e575b50508160011b915f199060031b1c1916176004555b331561022b5760058054336001600160a01b0319821681179092556001600160a01b03167f8be0079c531659141344cd1fd0a4f28419497f9722a3daafe3b4186f6b6457e05f80a360018060a01b0319600654161760065560025469d3c21bcecceda1000000810180911161021757600255335f525f602052805f2069d3c21bcecceda10000008154019055805169d3c21bcecceda100000081525f7fddf252ad1be2c89b69c2b068fc378daa952ba7f163c4a11628f55a4df523b3ef60203393a351610abe90816104448239f35b634e487b7160e01b5f52601160045260245ffd5b631e4fbdf760e01b5f525f60045260245ffd5b015190505f80610133565b601f1982169060045f52805f20915f5b8181106102945750958360019596971061027c575b505050811b01600455610148565b01515f1960f88460031b161c191690555f808061026e565b9192602060018192868b015181550194019201610259565b60045f527f8a35acfbc15ff81a39ae7d344fd709f28e8600b4aa8c65c6b64bfe7fe36bd19b601f830160051c81019160208410610305575b601f0160051c01905b8181106102fa575061011a565b5f81556001016102ed565b90915081906102e4565b634e487b7160e01b5f52602260045260245ffd5b90607f1690610108565b634e487b7160e01b5f52604160045260245ffd5b015190505f806100d2565b601f1982169560035f52805f20915f5b8881106103975750836001959697981061037f575b505050811b016003556100e7565b01515f1960f88460031b161c191690555f8080610371565b9192602060018192868501518155019401920161035c565b60035f527fc2575a0e9e593c00f959f8c92f12db2869c3395a3b0502d05e2516446f71f85b601f830160051c81019160208410610408575b601f0160051c01905b8181106103fd57506100b6565b5f81556001016103f0565b90915081906103e7565b90607f16906100a4565b5f80fd5b601f909101601f19168101906001600160401b0382119082101761032d5760405256fe6080806040526004361015610012575f80fd5b5f3560e01c90816306fdde031461070257508063095ea7b3146106805780630de57cfc1461061a57806318160ddd146105fd57806323b872dd1461051e578063313ce5671461050357806340c10f19146103ea57806370a08231146103b3578063715018a6146103585780638da5cb5b1461033057806395d89b411461022c578063a200e5d0146101ff578063a9059cbb146101ce578063cac89c5c146101a6578063dd62ed3e146101565763f2fde38b146100cc575f80fd5b34610152576020366003190112610152576100e56107e4565b6100ed610928565b6001600160a01b0316801561013f57600580546001600160a01b0319811683179091556001600160a01b03167f8be0079c531659141344cd1fd0a4f28419497f9722a3daafe3b4186f6b6457e05f80a3005b631e4fbdf760e01b5f525f60045260245ffd5b5f80fd5b346101525760403660031901126101525761016f6107e4565b6101776107fa565b6001600160a01b039182165f908152600160209081526040808320949093168252928352819020549051908152f35b34610152575f366003190112610152576006546040516001600160a01b039091168152602090f35b34610152576040366003190112610152576101f46101ea6107e4565b602435903361094f565b602060405160018152f35b3461015257602036600319011261015257602061022261021d6107e4565b610846565b6040519015158152f35b34610152575f366003190112610152576040515f6004548060011c90600181168015610326575b602083108114610312578285529081156102ee5750600114610290575b61028c8361028081850382610810565b604051918291826107ba565b0390f35b91905060045f527f8a35acfbc15ff81a39ae7d344fd709f28e8600b4aa8c65c6b64bfe7fe36bd19b915f905b8082106102d457509091508101602001610280610270565b9192600181602092548385880101520191019092916102bc565b60ff191660208086019190915291151560051b840190910191506102809050610270565b634e487b7160e01b5f52602260045260245ffd5b91607f1691610253565b34610152575f366003190112610152576005546040516001600160a01b039091168152602090f35b34610152575f36600319011261015257610370610928565b600580546001600160a01b031981169091555f906001600160a01b03167f8be0079c531659141344cd1fd0a4f28419497f9722a3daafe3b4186f6b6457e08280a3005b34610152576020366003190112610152576001600160a01b036103d46107e4565b165f525f602052602060405f2054604051908152f35b34610152576040366003190112610152576104036107e4565b60243561040e610928565b6001600160a01b0382169182156104f0576005546001600160a01b03168303610497575b50600254908082018092116104835760207fddf252ad1be2c89b69c2b068fc378daa952ba7f163c4a11628f55a4df523b3ef915f9360025584845283825260408420818154019055604051908152a3005b634e487b7160e01b5f52601160045260245ffd5b6104a090610846565b156104ab5782610432565b60405162461bcd60e51b815260206004820152601760248201527f526563697069656e74206e6f7420636f6d706c69616e740000000000000000006044820152606490fd5b63ec442f0560e01b5f525f60045260245ffd5b34610152575f36600319011261015257602060405160128152f35b34610152576060366003190112610152576105376107e4565b61053f6107fa565b6001600160a01b0382165f818152600160209081526040808320338452909152902054909260443592915f19811061057d575b506101f4935061094f565b8381106105e25784156105cf5733156105bc576101f4945f52600160205260405f2060018060a01b0333165f526020528360405f209103905584610572565b634a1406b160e11b5f525f60045260245ffd5b63e602df0560e01b5f525f60045260245ffd5b8390637dc7a0d960e11b5f523360045260245260445260645ffd5b34610152575f366003190112610152576020600254604051908152f35b34610152576020366003190112610152576106336107e4565b61063b610928565b600680546001600160a01b0319166001600160a01b039290921691821790557f98747757e5f0cf8ed88f5be95bf1fa9539ff10e55b2db045066f0bd3479052dc5f80a2005b34610152576040366003190112610152576106996107e4565b6024359033156105cf576001600160a01b03169081156105bc57335f52600160205260405f20825f526020528060405f20556040519081527f8c5be1e5ebec7d5bd14f71427d1e84f3dd0314c0f7b2291e5b200ac8c7c3b92560203392a3602060405160018152f35b34610152575f366003190112610152575f6003548060011c906001811680156107b0575b602083108114610312578285529081156102ee57506001146107525761028c8361028081850382610810565b91905060035f527fc2575a0e9e593c00f959f8c92f12db2869c3395a3b0502d05e2516446f71f85b915f905b80821061079657509091508101602001610280610270565b91926001816020925483858801015201910190929161077e565b91607f1691610726565b602060409281835280519182918282860152018484015e5f828201840152601f01601f1916010190565b600435906001600160a01b038216820361015257565b602435906001600160a01b038216820361015257565b90601f8019910116810190811067ffffffffffffffff82111761083257604052565b634e487b7160e01b5f52604160045260245ffd5b6006546001600160a01b0316908115610921575f9182916040516020810191635156fda160e01b835260018060a01b0316602482015260406044820152601360648201527230b1b1b932b234ba32b22fb4b73b32b9ba37b960691b6084820152608481526108b560a482610810565b51915afa3d15610919573d9067ffffffffffffffff821161083257604051916108e8601f8201601f191660200184610810565b82523d5f602084013e5b1561091457602081805181010312610152576020015180151581036101525790565b505f90565b6060906108f2565b5050600190565b6005546001600160a01b0316330361093c57565b63118cdaa760e01b5f523360045260245ffd5b916001600160a01b038316918215610a75576001600160a01b0381169384156104f0576005546001600160a01b03168403610a25575b506005546001600160a01b03168403610a11575b50815f525f60205260405f20548181106109f857817fddf252ad1be2c89b69c2b068fc378daa952ba7f163c4a11628f55a4df523b3ef92602092855f525f84520360405f2055845f525f825260405f20818154019055604051908152a3565b8263391434e360e21b5f5260045260245260445260645ffd5b610a1a90610846565b156104ab575f610999565b610a2e90610846565b15610a39575f610985565b60405162461bcd60e51b815260206004820152601460248201527314d95b99195c881b9bdd0818dbdb5c1b1a585b9d60621b6044820152606490fd5b634b637e8f60e11b5f525f60045260245ffdfea2646970667358221220c5c6b1fbd9bf32752e8957f645fd2674b34040107e0e4cb5836af3010792868364736f6c634300081c0033","linkReferences":{}},"methodIdentifiers":{"allowance(address,address)":"dd62ed3e","approve(address,uint256)":"095ea7b3","balanceOf(address)":"70a08231","complianceRegistry()":"cac89c5c","decimals()":"313ce567","isCompliant(address)":"a200e5d0","mint(address,uint256)":"40c10f19","name()":"06fdde03","owner()":"8da5cb5b","renounceOwnership()":"715018a6","symbol()":"95d89b41","totalSupply()":"18160ddd","transfer(address,uint256)":"a9059cbb","transferFrom(address,address,uint256)":"23b872dd","transferOwnership(address)":"f2fde38b","updateComplianceRegistry(address)":"0de57cfc"},"id":27}